:020000040000FA
:060000002AEF14F01200CB
:06000800F3EF0AF0120004
:02000E000706E3
:0600100005040302015586
:06001800F3EF0AF01200F4
:06002A000200BA280000EC
:10003000F802000001000000B7280000F7020000ED
:0400400001000000BB
:0C00440052EC0CF0190EE12681A0F282B3
:100050000201D6A709D0200E0201F85D04E1F86B79
:100060000201D69701D0F82B0201D651010B4BE0CB
:10007000D651020B48E1D6A704D081B0FCD7F2825A
:10008000FAD7F298040EE66E730EBBEC0BF0E66A3C
:10009000030EE66E05EC0EF0020F0101006F740E08
:1000A000005D28E2200EE66E010EBBEC0BF00201B3
:1000B000D683D695D691010EDF6E01010051D8800E
:1000C000DF5414E3DF50116A000F106E030E11228B
:1000D00010C0E6FF11C0E6FF05EC0EF0E66EDF5043
:1000E000A8EC0BF0C1EC0BF0DF2AE7D70201010E00
:1000F000E26F04D0D1EC0DF00201D691F288E66AED
:10010000730EBBEC0BF00201D6A3DBD2CC0E0101C7
:100110000215DFEC0CF0DB50880A35E0440A0EE0F3
:10012000400A0AE0440A06E0480A02E0880A2DE193
:10013000080E2AD0120E28D0120EDF6E180EDF6EB7
:10014000010EF36E040EF3CFDBFF030EDB6A080E25
:10015000F36E030EB2EC0CF012E2030EDB50060F4E
:10016000A8EC0BF0EFCF10F0030EDB50EDEC0CF031
:10017000105C02E0040EDB6A030EDB2AE8D7040EF3
:10018000DB5003E19DD20C0EDF6E400E0101011524
:100190000AE0010EDB500C0B06E0010EDB50C00B39
:1001A00002E0020EDF5E020E01C1DBFF0201E79DED
:1001B000D950020FE0EC0DF0EF50070B030A01E1FC
:1001C000F4D1030A01E193D1010A01E077D2020ED2
:1001D00053EC0DF0050EEFCFDBFF030E53EC0DF0EB
:1001E000060EEFCFDBFF040E53EC0DF0070EEFCF42
:1001F000DBFF050E53EC0DF0080EEFCFDBFF45ECF7
:100200000EF0D950050FE0EC0DF0FF0EEE180EE1E8
:10021000FF0EED180BE1D950070FE0EC0DF0FF0ECB
:10022000EE1804E1FF0EED1801E176D0050EDBCFEC
:1002300010F0060EDBCF11F0E551101801E03ED2B0
:10024000E651111801E03AD2070EDBCF12F0080E8A
:10025000DBCF13F0E351121801E030D2E451131850
:1002600001E02CD2DF28A8EC0EF0040B55E01CECCA
:100270000DF0040EEF6E1CEC0DF0020EEF6E060E8C
:1002800041EC0EF0070E41EC0EF0080E41EC0EF0C2
:10029000090E41EC0EF07BEC0EF00A0E41EC0EF074
:1002A000DAEC0EF0300EEF6ECC0E01010215CC0A26
:1002B00031E0440A0CE0400A08E0440A06E00C0A77
:1002C00002E0880A29E1080E26D0120E24D0DF04AD
:1002D000A8EC0BF00C0EEFCFDBFF020E92EC0EF051
:1002E0000B0EEFCFDBFF0A0E05C1DBFF090E04C1C9
:1002F000DBFF010EE66E0B0EDBCFE6FF0C0EDBCF55
:10030000E6FF090EDBCFE6FF0A0EDBCFE6FFFDECD2
:100310000CF002D0180EDF6E0B0EDEEC0EF001E0DA
:10032000D4D00C0EDEEC0EF0300801E1CED045EC5E
:100330000EF0DEEC0EF0110A01E181D0020A60E05D
:10034000320A01E0BBD10D0E53EC0DF0EFCFA4F259
:100350000E0E53EC0DF0EFCFA5F20F0E53EC0DF097
:10036000EFCFA6F2100E53EC0DF0EFCFA7F2110E67
:1003700053EC0DF0EFCFA8F2120E53EC0DF0EFCFCF
:10038000A9F2130E53EC0DF0EFCFAAF2140E53ECBA
:100390000DF0EFCFABF2150E53EC0DF0EFCFAFF247
:1003A000160E53EC0DF0EFCFB0F2170E53EC0DF02C
:1003B000EFCFADF2180E53EC0DF0EFCFAEF202011D
:1003C0002D0EAC6FADC210F0AEC211F00B0EDB50B3
:1003D000101811E10C0EDB5011180DE1AFC212F034
:1003E000B0C213F0090EDB50121805E10A0EDB5003
:1003F000131801E1AC83ADAFAC8DC1EC09F05ED157
:100400000201C593C5810D0EDB6A080EF36E0D0E59
:10041000B2EC0CF001E352D10D0EDB50DF24F80FEB
:10042000A8EC0EF0E66E0D0EDB50EA6AC90FE96E1D
:10043000020EEA22C1EC0BF00D0EDB2AE6D70E0EFF
:10044000DB6A080EF36E0E0EB2EC0CF00FE20E0E2D
:10045000DB50DF240D0FA8EC0EF0E66E0E0E04EC60
:100460000DF0C1EC0BF00E0EDB2AEBD702012D0EC6
:10047000AC6F150EDEEC0EF0800B01E1AC8D150EAD
:1004800053EC0DF0EFCFADF2160E53EC0DF0EFCFB5
:10049000AEF2E5C2AFF2E6C2B0F2CCEC0CF0020173
:1004A000C66FFF0EC65D06E0C651B2EC0BF0EFCF93
:1004B000ACF204D02D0EAC6FADAFAC8DC1EC09F039
:1004C0000201C66FC593C581F9D00201E8810A0E09
:1004D000DF24B36FB46B000EB327010EB4230D0EEF
:1004E000DF240101005D0201B56FE78DE7D0E7A1D0
:1004F000E5D004C1AFF205C1B0F206C1ADF207C14B
:10050000AEF2E66A5BEC09F0E552E76E130EE7CF58
:10051000DBFFDB50FF0805E170DBE76E130EE7CF72
:10052000DBFF7AEC0DF0EF50FF0801E0C7D0130EAF
:10053000DB5020EC0DF0E9C2EFFF130EDB50E4ECD2
:100540000DF0130EDB5098EC0BF0BCEC0CF0DF5010
:10055000A8EC0EF0C00B84EC0EF0040ED6EC0DF0FF
:10056000030EDF267AEC0DF0EF5084EC0EF0020E55
:10057000D6EC0DF07AEC0DF0EF5084EC0EF0030E9B
:10058000D6EC0DF0080EDEEC0EF084EC0EF0EE5220
:10059000C1EC0BF0130EDB50B2EC0BF0EF9A130E24
:1005A000DB50B2EC0BF0EF8089D0DF50A8EC0EF0FE
:1005B000080A55E00A0A01E081D0030EDEEC0EF0D5
:1005C0002CE1DF28A8EC0BF0EFCFE3F2020E53ECA6
:1005D0000DF0EFCFE4F289EC0EF00201E785E7932E
:1005E000EF0EAC6F24EC0DF0E35103E1AD6BAE6B9D
:1005F00003D0E4C2AEF2AD6BE5C2AFF2E6C2B0F238
:10060000C1EC09F00201EA6F4AEC07F0110EE66E48
:10061000250EE66E20EC13F00BD0EA69E569E66979
:10062000E668030EBBEC0BF0E668050EE66E8BDBAE
:10063000E552E552140EDB6A150EDB6A140EDBCFB1
:1006400010F0150EDBCF11F0100E105C270E1158B4
:1006500035E2140EDB2A150EF1E3DB2AEFD7E7AB08
:100660002DD024EC0DF0DF2A7AEC0DF0EFCFAFF2B5
:100670007AEC0DF0EFCFB0F27AEC0DF0EFCFADF2F7
:100680007AEC0DF0EFCFAEF2EF0EAC6FC1EC09F0EB
:100690000201EA6FFF0EEA5D11E0AFC2E5F2B0C2FF
:1006A000E6F2E79BE785DF2A7AEC0DF0EFCFE3F285
:1006B0007AEC0DF0EFCFE4F270EC0DF00201E7AD53
:1006C0008FDAD1EC13F004C0BEF205C0BFF206C051
:1006D000C0F207C0C1F2B60EE96E020EEA6EEE502D
:1006E0000201045CBA6FEE500558BB6FEE5006581D
:1006F000BC6FEE500758BD6FE751010B03E1E751A6
:10070000200B4AE0010EC25D16E2EAEC0DF019E2A0
:100710006DEC0CF00201C251C22BF76AAA0FF66E03
:10072000280EF7220800F550E66E48EC09F0E55275
:100730000201E79706D0EAEC0DF003E2E791E79BB0
:10074000E787E7A113D0E7B711D00101030E746F5B
:10075000080EF0EC0DF00AEC0EF0070E7B6F0201B4
:10076000080EB26FB7EC0CF00201E787E7ABB9D027
:10077000E7B7B7D00101030E88EC0CF00AEC0EF0DD
:100780000CEC0CF0060E856F0201120EB26FB7EC86
:100790000CF00201E787A5D0E7A367D0D880000E50
:1007A000BA55780E8CEC0CF001E39BD0E7B999D0E8
:1007B000E7890101630E88EC0CF00201EA5198EC24
:1007C0000BF0EFCF77F10FEC0EF0D1EC0CF0EA511B
:1007D00098EC0BF0020ED5EC0CF0EA5156EC0DF053
:1007E00074EC0EF0EFCF7AF10E0EF66E000EF76E8F
:1007F0000800F5CF7BF10F0EF66E000EF76E0800C5
:10080000F5CF7CF1100EF66E000EF76E0800F5CFF6
:100810007DF1110EF66E000EF76E0800F5CF7EF139
:10082000120EF66E000EF76E0800F5CF7FF1130E74
:10083000F66E000EF76E0800F5CF80F1140EF66E1E
:10084000000EF76E0800F5CF81F1150EF66E000E62
:10085000F76E0800F5CF82F10101040E836F0201EB
:10086000100EB26FB7EC0CF03CD0160EDB6AE7A5A9
:100870001BD0E7AF0FD0E7BD17D01CEC0DF0630E17
:1008800027EC0EF0A6EC0CF00201E79FE8916DEC6E
:100890000CF00AD0E8B108D0D880350EBA550C0E4D
:1008A0008CEC0CF001E2E8810201C5A31AD0C5B1BD
:1008B00018D0D10EE96E020EEA6EEE50BE5DBA6F30
:1008C000EE50BF59BB6FEE50C059BC6FEE50C159CE
:1008D000BD6FD880A80EBA55610E8CEC0CF001E209
:1008E000C593190EE15C02E2E16AE552E16E57EF51
:1008F0000CF0D9EC0DF0FD0EDBCFAFF2FE0EDBCF2E
:10090000B0F2FB0EDBCFADF2FC0EDBCFAEF2CCECE7
:100910000CF0DF6EFF0EDF5C06E0FA0EDBCFE6FFC9
:100920000BEC0DF02CD0FF0E0201C45D01E1C42BD5
:100930000101040E746F020E756FFD0EDBCF76F1B0
:10094000FE0EDBCF77F1FB0EDBCF78F1FC0EDBCFB9
:1009500079F1C3EC0CF0C4C27EF15DEC0EF0C5EC95
:100960000DF019EC0DF0B7EC0EF0880E88EC0DF0E0
:10097000610EEF6EA6EC0CF00201C451C42BE552DF
:1009800057EF0CF0C9EC0DF0010EDB68F7EC0DF041
:10099000EFCFA4F2010E47EC0CF0EFCFA5F2020E60
:1009A00047EC0CF0EFCFA6F2030E47EC0CF0EFCFC4
:1009B000A7F2040E47EC0CF0EFCFA8F2050E47ECBF
:1009C0000CF0EFCFA9F2060E47EC0CF0EFCFAAF235
:1009D000070E47EC0CF0EFCFABF290EC09F0DF6EB6
:1009E000FF0EDF5C04E0E66A0BEC0DF03BD0FF0E7F
:1009F0000201C45D01E1C42B92EC0CF0C4C27EF193
:100A00000201C451C42BDFEC0CF0E4EC0EF0ABC2DD
:100A1000EFFF39EC0EF0AAC2EFFF39EC0EF0A9C2DD
:100A2000EFFF39EC0EF0A8C2EFFF39EC0EF0A7C2D1
:100A3000EFFF39EC0EF0A6C2EFFF39EC0EF0A5C2C5
:100A4000EFFF39EC0EF0A4C2EFFF4AEC0DF0B7EC6B
:100A50000EF0CC0E88EC0DF0210EEF6EB7EC0CF022
:100A6000010EDB50106E020EE15C02E2E16AE5521B
:100A7000E16E105057EF0CF0D9EC0DF0FD0EDB508D
:100A800033E10B0E0201B225106E460E105C01E33D
:100A900084D0FF0EC45D01E1C42B5FEC0DF0100BA0
:100AA00007E05FEC0DF0080B03E192EC0CF01AD0BC
:100AB0000101040E746F020E756FBBEC0EF0EFCFE8
:100AC00076F1B7EC0DF074EC0EF0EFCF77F1BBECF4
:100AD0000EF0020ED1EC0CF09CEC0EF0D5EC0CF00C
:100AE000C3EC0CF0C4C27EF15FEC0DF0010B70E0C2
:100AF0005FEC0DF0020B5AE05FEC0DF0100B2EE0F6
:100B00008FEC0DF0020116EC0EF0FE0EDB5020EC27
:100B10000DF0070EC3EC0EF0060EC3EC0EF0050E42
:100B2000C3EC0EF0040EC3EC0EF0030EC3EC0EF09B
:100B3000020E3DEC0EF0BAEC0DF0C6EC0EF0DCEC63
:100B40000DF019EC0DF04AEC0DF0B7EC0EF0CC0EF8
:100B500088EC0DF0210EEF6EE66A37D05FEC0DF0F9
:100B6000400B1FE05FEC0DF0080B32E0090E0201B4
:100B7000B225106E460E105C10E269EC0DF09CEC94
:100B80000EF03DEC0EF098EC0BF0020EC6EC0EF001
:100B9000B7EC0DF03DEC0EF00BD0B26B450EB16F23
:100BA00017D05FEC0DF0080B15E112D05DEC0EF0E4
:100BB000C5EC0DF019EC0DF0B7EC0EF0880E88ECDA
:100BC0000DF0610EEF6E010EE66E28D8E55202D0F0
:100BD000FF0E03D00201C451C42BE55257EF0CF0B5
:100BE0000201E79DF298E66A010EBBEC0BF00201F0
:100BF000D693D685E26BF2881200D9EC0DF0DF6A4D
:100C0000F5EC0CF007E2ABEC0EF002E1DF5003D0A4
:100C1000DF2AF6D7FF0EE55257EF0CF0C9EC0DF0C6
:100C20000201D6A704D081B0FBD7F282F9D7450ED6
:100C3000D880B155E66E000EA0EC0EF0460E020113
:100C4000B225FF0FD880B155E66E010EA0EC0EF074
:100C5000020EDF6E450E0201B15D05E2B12BB1510E
:100C6000BEEC0DF0F7D7450EB16F010EDB6A020145
:100C7000B251F36E010EB2EC0CF007E2010EDB5044
:100C8000BEEC0DF0010EDB2AF2D7B26BD687FE0E5A
:100C9000DB0403E1D689050E02D0D699010EE66E7B
:100CA000370EBBEC0BF0010E106E020EE15C02E29F
:100CB000E16AE552E16E105057EF0CF0D9CFE6FF34
:100CC000E1CFD9FFE652F250100B01E0010EDF6ECA
:100CD000F2988B900000FD0EDBCF10F0FE0EDBCF04
:100CE00011F0030ED89011321032E804FBE17F0EB0
:100CF00010148009E66E14EC14F0E552FD0EDBCF03
:100D000010F0FE0EDBCF11F0050ED8901036113624
:100D1000E804FBE1E00E10141009E66E14EC14F088
:100D2000E552FC0EDBCFE6FF14EC14F0E5520000B8
:100D30008B80DF50E8B0F288E8A0F298E552E552E7
:100D4000E7CFD9FF1200D9CFE6FFE1CFD9FFE652B6
:100D5000F250100B01E0010EDF6EF2988B90000054
:100D6000FE0EDBCFE6FF14EC14F0E552FD0EDBCFF8
:100D7000E6FF14EC14F0E55200008B80DF50E8B081
:100D8000F288E8A0F298E552E552E7CFD9FF1200C9
:100D9000D9CFE6FFE1CFD9FF020EE126F250100BCA
:100DA00001E0010EE76E010EE7CFDBFFF2988B90BA
:100DB0000000FE0EDBCFE6FF14EC14F0E55225EC4C
:100DC00014F0DF6E00008B80010EDB50E8B0F2887B
:100DD000E8A0F298DF5000D0106E020EE15C02E253
:100DE000E16AE552E16E1050E552E7CFD9FF1200FB
:100DF000D9CFE6FFE1CFD9FF020EE126F250100B6A
:100E000001E0010EE76E010EE7CFDBFFF2988B9059
:100E10000000FD0EDBCF10F0FE0EDBCF11F0030E55
:100E2000D89011321032E804FBE17F0E1016000E4C
:100E30001116800E1010E66E14EC14F0E552FD0E43
:100E4000DBCF10F0FE0EDBCF11F0050ED890103680
:100E50001136E804FBE1E00E1014E66E14EC14F019
:100E6000E55225EC14F0DF6E00008B80010EDB50A4
:100E7000E8B0F288E8A0F298DF5000D0106E020EC1
:100E8000E15C02E2E16AE552E16E1050E552E7CF23
:100E9000D9FF1200D9EC0DF0C90EE66E240E12EC4B
:100EA0000DF0F5EC0CF047E2ABEC0EF042E0AEECEE
:100EB0000EF03FE1DFCFE6FFCDEC0DF0200E5AEC57
:100EC0000DF068EC0EF045EC0DF0B1EC0EF098EC86
:100ED0000EF0BFEC0EF0EE52EF50E66E3EEC13F06B
:100EE000E552BFEC0EF0020E45EC0DF0BFEC0EF03B
:100EF000030EB8EC0BF0CDEC0DF078EC0EF0040E18
:100F000013EC0EF0400B02E0590E01D04E0E5AECDD
:100F10000DF0B1EC0EF0BFEC0EF0040E13EC0EF081
:100F2000800B02E0590E01D04E0E64EC0DF078EC0F
:100F30000CF0DF2AB6D778EC0CF0900EE66E240E9B
:100F400012EC0DF00A0EDF5C58E2ABEC0EF053E051
:100F5000AEEC0EF050E0DFCFE6FFCDEC0DF0200E52
:100F600095EC0EF0400B02E0590E01D04E0E95ECC0
:100F70000EF0020B02E0590E01D04E0E95EC0EF071
:100F8000100B02E0590E01D04E0E64EC0DF0200E55
:100F900095EC0EF0080B06E068EC0EF0E9DB3EEC99
:100FA00013F005D063EC0CF0D9DB63EC0CF0E552E8
:100FB000B1EC0EF04FEC0DF0040B1BE078EC0EF0F2
:100FC000070EC9EC0EF0060EC9EC0EF0050EC9ECCA
:100FD0000EF0040EC9EC0EF0030EC9EC0EF0020E7A
:100FE00045EC0DF0DF50BAEC0DF045EC0DF098EC4F
:100FF0000EF078EC0CF0DF2AA5D7E55257EF0CF095
:101000000201E7A533D01CEC0DF0610E27EC0EF0C9
:101010001CEC0DF0060EEF6E5AEC0EF07BEC0EF0B1
:101020007EEC0EF0200EEF6E1CEC0DF0A4C2EFFF74
:101030001CEC0DF0A5C2EFFF1CEC0DF0A6C2EFFFFB
:101040001CEC0DF0A7C2EFFF1CEC0DF0A8C2EFFFE7
:101050001CEC0DF0A9C2EFFF1CEC0DF0AAC2EFFFD3
:101060001CEC0DF0ABC2EFFFA6EC0CF01200C9ECCB
:101070000DF0FE0EDB50DFEC0CF0DF6A0A0EDF5CD9
:101080004BE2FE0EDB50FF0803E18BEC0DF042D08B
:101090005BEC0CF0010B06E04FEC0DF0020B02E1F3
:1010A0008BEC0DF05BEC0CF0020B06E04FEC0DF05E
:1010B000040B02E18BEC0DF05BEC0CF0040B0AE08E
:1010C0004FEC0DF0080B06E14FEC0DF0100B02E1B8
:1010D0008BEC0DF0F0DB080B06E04FEC0DF0100B85
:1010E00002E08BEC0DF0E7DB100B05E0AEEC0EF050
:1010F00002E18BEC0DF0DFDB200B05E0AEEC0EF037
:1011000002E08BEC0DF0D7DB400BD950010FE96EFC
:10111000EF50800BDF2AB2D7020EE15C02E2E16AF7
:10112000E552E16EC4D3BEDB040EE126FE0EDB50B9
:1011300040E10201C591E1DBE4EC0CF002010B0E91
:10114000B26FE850B22BFEDAEF6A1CEC0DF0100E15
:10115000EF6EB2EC0DF0B4EC0EF0ADEC0DF0B4ECC3
:101160000EF0A8EC0DF0B4EC0EF0A3EC0DF0B4EC26
:101170000EF09EEC0DF0B4EC0EF099EC0DF0B4EC2A
:101180000EF094EC0DF0B4EC0EF08FEC0DF0B4EC2E
:101190000EF0E66A010EDBCFE6FF020EDBCFE6FFC4
:1011A000E5C2E6FFE6C2E6FFFDEC0CF00201C583F6
:1011B0002AD0FE0EDB0427E10201C5B324D09DDB5B
:1011C0000201DAEC0EF0EF6A5AEC0EF05AEC0EF077
:1011D0007EEC0EF0120EEF6EE4EC0EF0EF6839ECE0
:1011E0000EF0EF684AEC0DF0B7EC0EF0C80E88EC8C
:1011F0000DF0010EEF6EBBDB0201C583C5857DDB03
:101200000201C591C587040EE15C02E2E16AE55284
:10121000E16E4DD347DB5FEC0DF0010B38E0DCEC09
:101220000DF036D8E5520201E783E799FE0EDBCFD9
:10123000EAF2DB50C5EC0DF0030E9DDAB7EC0DF0D1
:1012400097DA050E98DABBEC0EF0EECFE5F2EDCFB3
:10125000E6F20101230E5CDBBBEC0EF0EFCF77F181
:10126000B7EC0DF09EDBBBEC0EF0020E9EDB9CECAF
:101270000EF074EC0EF0EFCF7AF1CEDA010E856F3E
:10128000800E866F0201130EB26F60DB26DB0FD378
:1012900009DBFE0EDBCFE9F2DB500209E66EE66AFF
:1012A000020EE66EF9DA040EE66E6D0E64DAE66A98
:1012B0006D0E61DAFCD2D9EC0DF0DF6A0A0EDF5C4C
:1012C0002CE2ABEC0EF027E0AEEC0EF001E0010EEC
:1012D000106EFE0EDB50105C1EE1E1EC0EF0EECF66
:1012E00010F0EFCF11F00201AF51101814E1B0511E
:1012F000111811E1E1EC0EF0020E74EC0EF0EECFDD
:1013000012F0EFCF13F0AD51121805E1AE511318E2
:1013100002E1DF5003D0DF2AD1D7FF0EE552C7D25A
:10132000C9EC0DF0DF6A0A0EDF5C21E2ABEC0EF0D7
:101330001CE0010EDB6A080EF36E010E13DB13E2F4
:10134000DF50BAEC0DF0DB50E924E96E000EEA2024
:10135000EA6EEFCF10F0010E57DBEF50105C05E1A5
:10136000010EDB2AE8D7DF5003D0DF2ADCD7FF0EDF
:10137000106E020EE15C02E2E16AE552E16E10508D
:1013800096D2D9EC0DF00201ACA502D0C9DF03D092
:10139000ACA702D001DBDF6EFF0EDF5C02E12DDCCB
:1013A000DF6EFF0EDF5C42E0DF50DCD9ACC2EFFF46
:1013B0000201ACA534D078EC0EF0A4C2EFFFDF50F0
:1013C000D9DB74EC0EF0A5C2EFFF78EC0EF0020E44
:1013D00074EC0EF0A6C2EFFF78EC0EF0030E74EC86
:1013E0000EF0A7C2EFFF78EC0EF0040E74EC0EF0D6
:1013F000A8C2EFFF78EC0EF0050E74EC0EF0A9C257
:10140000EFFF78EC0EF0060E74EC0EF0AAC2EFFFC0
:1014100078EC0EF0070E74EC0EF0ABC2EFFFACA749
:1014200003D0E1EC0EF0A8DADF50CEDBDF50E5525E
:101430003ED238DA030EE1268B94C6DA8DDA06E264
:10144000010EDB2A020EFAE3DB2AF8D78B84BCDA22
:1014500083DA06E2010EDB2A020EFAE3DB2AF8D772
:10146000070EE66E550E87D9540EA3DA070EDF1469
:10147000FBE1AADAC3DBE80E105C030E115806E2AA
:10148000010EDB2A020EF6E3DB2AF4D78ADB28DB27
:10149000DF6A080EDF5C09E2DF509FDAE66EDF509C
:1014A000E8240B0F68D9DF2AF4D7020EE66EE66A4D
:1014B000E66EF2D9010EE66EA4EC0EF0020EE66EB8
:1014C000E66EEAD9E66A030E19DB900EE66E060EAA
:1014D000A4EC0EF0070E12DB100EE66E080E0EDB0B
:1014E000010EE66E200EA4EC0EF0750E44D9400EEF
:1014F000E66E7D0E40D9600EE66E7F0E3CD9980EEA
:10150000E66E310E38D9950EE66E5D0E34D914DADA
:10151000FEE1E60EE66E650E2ED9AA0EF66E280ED8
:1015200076D9B6DEE552030EE15C02E2E16AE552ED
:10153000E16EBDD13EDB0201E369E469E569E6697C
:1015400078DF0201D66BD76BD685D693E6688FDD40
:10155000E5520201E795E793E79FC56BC7EC13F0EF
:101560000201450EB16FB26BF292F28881A0F28255
:10157000E5529DD10201D68D8B92040EE66E550E7A
:10158000FAD8800EE66E450EF6D8600EE66E1B0E9B
:10159000F2D8800EE66E6B0EBBEF0BF083D9090E0E
:1015A000E1268B82D1EC13F0010E04C0DBFF020EAA
:1015B00005C0DBFF030E06C0DBFF040E07C0DBFF28
:1015C000E4D804E3620EF5D9DFACFAD7DED802E343
:1015D000B3D9FCE10201D69D090EE15C02E2E16AA9
:1015E000E552E16E64D1D8CFE4FFE0CFE4FFE46ED2
:1015F000DACFE4FFE2CFDAFFE9CFE4FFEACFE4FF9E
:10160000F6CFE4FFF7CFE4FFF5CFE4FFF3CFE4FF3D
:10161000F4CFE4FFFACFE4FF00EE00F0100EE80490
:1016200003E3EECFE4FFFBD700EE10F0080EE80472
:1016300003E3EECFE4FFFBD7E652ABDAF250100B38
:1016400033E0F250020B30E0F292620EB2D9D9CF01
:10165000E9FFDACFEAFFEF50010B19E00201D6975C
:101660000201F86B0201D651200B03E1D651100B99
:101670000BE0480EE66EC8EC06F0E552A0D91BD987
:10168000010B02E10201D6990201D69B0CD0D9CF01
:10169000E9FFDACFEAFFEF50080B05E00201D6A51B
:1016A00002D0D68101D07DDAF2A409D0F2AA07D007
:1016B000F2940201F52BF55102E10201F62BF250F2
:1016C000080B04E0F250010B01E0F290020EE15C25
:1016D00002E2E16AE552E16EE552E7CFD9FFE55259
:1016E00000EE17F0080EE80403E3E5CFEDFFFBD7AB
:1016F00000EE0FF0100EE80403E3E5CFEDFFFBD79B
:10170000E5CFFAFFE5CFF4FFE5CFF3FFE5CFF5FF37
:10171000E5CFF7FFE5CFF6FFE5CFEAFFE5CFE9FF3D
:10172000E5CFDAFFE550E5CFE0FFE5CFD8FF1000C9
:10173000100DF3CFE9FFF4CFEAFF000EE926020E09
:10174000EA221200EA6A740FE96E010EEA22120020
:10175000EA6A000FE96E010EEA221200E55201DB8F
:10176000B1EF0EF0EA6AD80FE96E020EEA2212001B
:101770005ADAE66E1200E66EA3EC06F0E552E55288
:101780001200E552E750EF6E1200D1EC13F0050E97
:1017900004C0DBFF060E05C0DBFF070E06C0DBFF43
:1017A000080E07C0DBFF050EDBCF14F0060EDBCF03
:1017B00015F0070EDBCF16F0080EDBCF17F0D9506F
:1017C000010FFED9EE50145C106EEE501558116EDC
:1017D000EE501658126EEE501758136E050E10C0CC
:1017E000DBFF060E11C0DBFF070E12C0DBFF080E89
:1017F00013C0DBFFD950050FE3D9D8806A0EEE5431
:10180000180EEE54000EEE54000EEE541200F76E59
:101810000800F550E66E12007B697C690E0EF66ECC
:10182000000EF76E0800F5CF7DF10F0EF66E000E7C
:10183000F76E0800F5CF7EF1100EF66E000EF76E13
:101840000800F5CF7FF1110EF66E000EF76E08005E
:10185000F5CF80F1120EF66E000EF76E0800F5CF90
:1018600081F1130EF66E000EF76E0800F5CF82F1CF
:10187000140EF66E000EF76E0800F5CF83F1150E0C
:10188000F66E000EF76E0800F5CF84F11200E76ED9
:10189000AED9E75074EF0EF05EEC06F0E552E5527B
:1018A000E5521200D9CFE6FFE1CFD9FF1200E55291
:1018B000E7CFD9FF1200D950010F82D9EF501200A3
:1018C00013DA010E12003F0EFFD83F0EFDD83F0E77
:1018D000FBD83F0EE66E37EF13F0D1EC13F004C0E7
:1018E000B6F205C0B7F206C0B8F207C0B9F21200EE
:1018F0000D0EEAD80A0E64EF0DF0D1EC13F004C01F
:10190000D1F205C0D2F206C0D3F207C0D4F2120061
:10191000746FC80EF0EF0DF0BB55000EBC55000EF5
:10192000BD5512000101746B020E756F766972D994
:101930007B697C697D6912000F0EE66E020EE66E11
:1019400064D9DF6EE00EDF14A0081200010EE66E0F
:101950000EEC06F0E552120051D92C0E105C010E6F
:1019600011581200DBCFF4FFF350F45C1200E66A6A
:101970000EEC06F0E5521200020EB6D9ADC2EEFF33
:10198000AEC2EDFF1200E5C27AF1E6C27BF1E3C21E
:101990007CF1E4C27DF11200010EE66E8CDCE552B2
:1019A0001200A2D9EFCF78F112009ED9EFCF79F1D2
:1019B0001200E66EC8EC06F0E552DF6E1200E76E2C
:1019C000010EE7CFDBFF1200010EDB6A020EDB6ABD
:1019D0001200C351C32BE66E1200F76A0E0FF66EAB
:1019E000000EF7220800F5501200DF50106E116A49
:1019F0000A0E105C000E1158120079EC04F0106E03
:101A0000050EE15E10501200DB50EA6AA40FE96E89
:101A1000020EEA221200DFCFE6FF3CEC05F0E552B1
:101A2000E5521200E66E20EC13F0E552E552DF6A53
:101A300012001FD9C1EF0BF0B251B22BA2EF0BF085
:101A400077DE080E74EF0EF0080E6CD9EFCFA4F21B
:101A5000070E68D9EFCFA5F2060E64D9EFCFA6F234
:101A6000050E60D9EFCFA7F2040E5CD9EFCFA8F234
:101A7000030E58D9EFCFA9F2020E54D9EFCFAAF234
:101A8000DF0466DEEFCFABF2120072DE3EEC13F045
:101A9000E5521200EED8EF68ECD8EF681200DF5084
:101AA00061DEEF501200DF24A8EF0BF041DE020EE2
:101AB00060EF0CF0E66E37EC13F0AEEF0BF0FE0EBD
:101AC000DB5050DEEF501200E66E37EC13F0E552BB
:101AD0001200CFD8E4C2EFFFCCD8E3C2EFFF120070
:101AE00018D9E5C2E6FF030E46DEE6C2E6FF050EA4
:101AF000BBEF0BF0DF50DF2AA8EF0BF0E66E020E13
:101B0000E66E4CEF0CF0EA5113DE020EB8EF0BF06C
:101B1000EF6E39EF0EF0DF5025DEEF901200150E5C
:101B2000F66E000E07EF0CF0140EF66E000E07EFC7
:101B30000CF0130EF66E000E07EF0CF0120EF66EA0
:101B4000000E07EF0CF0110EF66E000E07EF0CF012
:101B5000100EF66E000E07EF0CF00F0EF66E000E74
:101B600007EF0CF00E0EF66E000E07EF0CF003D927
:101B7000010E1200DDDD080E60EF0CF0E3DDEF502A
:101B8000E66EDF50DF2AA0EF0EF0D2DDEF50E66EFA
:101B9000120088DE020EE12612003EEC13F0AEEFDA
:101BA0000BF0010EE66E1B0EBBEF0BF09DD8C1EFE4
:101BB0000BF078DEE6521200DED8080EB8EF0BF01C
:101BC000E96EDACFEAFF1200B3DDAFC2EEFFB0C2BA
:101BD000EDFF1200D880120EBA557A0E8CEF0CF081
:101BE000756F0201C351C32B0101766F1200FD0E08
:101BF000DBCFE9FFFE0EDBCFEAFF1200010EDBCFE9
:101C000010F0020EDBCF11F01200F8EC06F0E552F6
:101C1000E55212007769786979697A691200EA51A8
:101C200087DD010E120060D8EF50120002DF7CDF6A
:101C300000DF7FDFFEDE82DFFCDE85DFFADE88DFAD
:101C4000F8DE8BDFF6DE8EDFF4DE4AEF0DF0EF6EAE
:101C5000F3DE880EEF6EBDDE87D89ED854DF84D8C1
:101C6000EA5124DF85DD80D89ED8E6DE040EEF6ED3
:101C70001200B151B107A2EF0BF088D8FE0EDB5075
:101C800012009CD8E66EB4EF0EF0060E0CDF090EC3
:101C9000EFCFDBFF070E07DF0A0EEFCFDBFF080EEB
:101CA00002DF0B0EEFCFDBFF090EFDDE0C0EEFCFD8
:101CB000DBFF12008DD8E8EF0EF002010ADFEA51D7
:101CC000F5DE64D820DFB5DEAADF60D8EA51120065
:101CD00078D8010EDADEDF5058DF5FDFDF50E6DE56
:101CE000D4DE6FD8020E1200E926000EEA2212009E
:101CF000DF5020EF0DF050D8D3EF0EF0C451C42BBD
:101D0000E66E32D8DAEF0EF0E66E130EDB5020EFFF
:101D10000DF0E3C2E6FF070E2EDDE4C2E6FF090E7A
:101D2000BBEF0BF0DF5CA8EF0BF0C4DE4FEF0DF064
:101D300048D8080E45EF0DF0FE0EDB5056EF0DF0C3
:101D4000E66EE66A4CEF0CF0D9DE800EE66E12000D
:101D5000FFDCEF501200A3DE010B1200A0DE200B0F
:101D60001200200E64EF0DF067DEC1EF0BF031DEE4
:101D700060DE39EF0EF0FE0EDB5098EF0BF0200E18
:101D800099DE78EF0EF079DF20EF0DF0F1DC19EF3E
:101D90000DF07BDE78EF0EF04FDEE5C2EFFF4CDE9C
:101DA000E6C2EFFF120048DEE3C2EFFF45DEE4C209
:101DB000EFFF120041DEEF6A1CEF0DF074DEEF5012
:101DC0001200DF5098EF0BF0AADE30DF39EF0EF093
:0A1DD00033DEEF6831DEEF68120029
:061DDA00D9CFE6FFE1CFC6
:101DE000D9FF220EE126110EDB68020EDB6A010E1E
:101DF000DB6A19EC13F033DB9AEC0AF0F28E81BA4D
:101E000014D04AEC07F081AAFED70201E78B020149
:101E1000E7870201C26BD1EC13F004C0B6F205C033
:101E2000B7F206C0B8F207C0B9F222EC00F0020126
:101E3000E7A5EAD10201E7AD53D0120EB3C2DBFF32
:101E4000130EB4C2DBFF0201B3C2E9FFB4C2EAFF62
:101E5000B32B000EB4230201B3C2E9FFB4C2EAFF00
:101E6000B32B000EB423EF502FE0120A01E036D05E
:101E70000201B3C2E9FFB4C2EAFFB32B000EB423E0
:101E8000EF50340A01E01FD00201B3C2E9FFB4C22F
:101E9000EAFFB32B000EB423EF50550A09E0550AB0
:101EA00005E0FF0A01E00ED080820CD080920AD0BB
:101EB0008072100EE66E260EE66E20EC13F0E552F0
:101EC000E55200D000D00AD0B3C2E9FFB4C2EAFFA5
:101ED000EF50300A01E001D000D000D0F0EC05F066
:101EE000020EDB042EE10201C5B32BD0020EDB6A29
:101EF0000201C5A11BD08080FF0EE66E250EE66EA6
:101F000020EC13F0E552E552110EC6C2DBFF110EB4
:101F1000DBCFE6FF3EEC13F0E552FC0EE66E250E3D
:101F2000E66E20EC13F0E552E5520BD08090110ED6
:101F3000DB68E40EE66E250EE66E20EC13F0E5524B
:101F4000E55281B895D0040EDB5001E082D0010E3D
:101F5000F36E040EF3CFDBFF02010B0EB26F020132
:101F6000B251B22BEA6A740FE96E010EEA22120E28
:101F7000EF6E0201B251B22BEA6A740FE96E010EE4
:101F8000EA22340EEF6E0201B251B22BEA6A740FEC
:101F9000E96E010EEA22550EEF6E110EDB50FF08BE
:101FA00011E0E66A110EDBCFE6FF3CEC05F0E552EE
:101FB000E552C40EE66E250EE66E20EC13F0E552F7
:101FC000E55247D00201F751F72B010B28E102013E
:101FD000930EA46F0201780EA56F0201560EA66F34
:101FE0000201340EA76F0201120EA86F0201A30EA8
:101FF000A96F0201040EAA6F0201AB6BA40EE66E7C
:10200000020EE66EC2EC04F0E552E552A60EE66E54
:10201000250EE66E20EC13F0E552E5521AD00201CF
:10202000AD6BAE6BE66AADC2E6FFAEC2E6FFE5C2DF
:10203000E6FFE6C2E6FF79EC04F0106E050EE15E05
:102040001050870EE66E250EE66E20EC13F0E5527A
:10205000E552D1EC13F0090E04C0DBFF0A0E05C0F7
:10206000DBFF0B0E06C0DBFF0C0E07C0DBFF48D00A
:10207000D1EC13F0150E04C0DBFF160E05C0DBFF1C
:10208000170E06C0DBFF180E07C0DBFF150EDBCFF7
:1020900014F0160EDBCF15F0170EDBCF16F0180E6E
:1020A000DBCF17F0D950090FE96EDACFEAFFEE5017
:1020B000145C106EEE501558116EEE501658126EDC
:1020C000EE501758136E0D0E10C0DBFF0E0E11C030
:1020D000DBFF0F0E12C0DBFF100E13C0DBFFD95069
:1020E0000D0FE96EDACFEAFFD880350EEE540C0EF4
:1020F000EE54000EEE54000EEE5402E2040EDB6AC3
:1021000081BA28D0030EDB5016E1010EF36E030EE8
:10211000F3CFDBFF010EF36E020EF3CFDBFF6E0E8B
:10212000E66E250EE66E20EC13F0E552E552E66A07
:1021300093EC08F0E552D1EC13F0050E04C0DBFF80
:10214000060E05C0DBFF070E06C0DBFF080E07C04A
:10215000DBFF48D0D1EC13F0190E04C0DBFF1A0EE0
:1021600005C0DBFF1B0E06C0DBFF1C0E07C0DBFF3C
:10217000190EDBCF14F01A0EDBCF15F01B0EDBCFE0
:1021800016F01C0EDBCF17F0D950050FE96EDACF31
:10219000EAFFEE50145C106EEE501558116EEE50C2
:1021A0001658126EEE501758136E0D0E10C0DBFF4E
:1021B0000E0E11C0DBFF0F0E12C0DBFF100E13C09E
:1021C000DBFFD9500D0FE96EDACFEAFFD880350E6C
:1021D000EE540C0EEE54000EEE54000EEE5402E2DD
:1021E000030EDB6A0201E8A10ED0BAEC0AF0ACA241
:1021F000FED7D180F290F2860300F296D190CEEC19
:102200000AF00201E78F20D102010201E751010B20
:1022100001E01AD102010201E751020B01E014D1E1
:1022200002010201E751200B01E00ED11D0EDB6817
:102230001F0EDB6A1E0EDB6A0A0EF36E1E0EDBCF6C
:10224000F4FFF350F45C72E21E0EDB50EA6AD80F22
:10225000E96E020EEA22EF50010B65E01E0EDB5024
:10226000EA6AD80FE96E020EEA22EF50200B5BE11A
:102270001E0EDB50100DF3CFE9FFF4CFEAFF000E86
:10228000E926020EEA22080EE926000EEA22020ED4
:10229000E926000EEA22EF504D0845E11E0EDB5004
:1022A000100DF3CFE9FFF4CFEAFF000EE926020E8E
:1022B000EA22080EE926000EEA22040EE926000EA4
:1022C000EA22EF50800B2FE01E0EDB50100DF3CFF3
:1022D000E9FFF4CFEAFF000EE926020EEA22080E1B
:1022E000E926000EEA22EE52EFCF10F01F0EDB506F
:1022F000105C19E31E0EDB50E76E1D0EE7CFDBFF0F
:102300001E0EDB50100DF3CFE9FFF4CFEAFF000EF5
:10231000E926020EEA22080EE926000EEA22EE5213
:102320001F0EEFCFDBFF1E0EDB2A86D71D0EDB5004
:10233000FF082BE14A0EE66E250EE66E20EC13F048
:10234000E552E552010EDBCFF3FFDB2AF350030821
:1023500006E2100EE66E37EC08F0E55215D0100ECE
:10236000E66E37EC08F0E5520201E7810201E787EB
:102370000201C26BD1EC13F004C0B6F205C0B7F293
:1023800006C0B8F207C0B9F25FD0310EE66E250E76
:10239000E66E20EC13F0E552E5521D0EDBCFE6FFB2
:1023A0003EEC13F0E552FC0EE66E250EE66E20ECD8
:1023B00013F0E552E5521D0EDBCFE6FF0AEC09F003
:1023C000E5528082200EDB6A210EDB6A200EDBCF15
:1023D00010F0210EDBCF11F0200E105C4E0E1158C4
:1023E00006E2200EDB2A210E01E3DB2AEFD78092E2
:1023F000200EDB6A210EDB6A200EDBCF10F0210EEF
:10240000DBCF11F0200E105C4E0E115806E2200EAC
:10241000DB2A210E01E3DB2AEFD78082200EDB6A64
:10242000210EDB6A200EDBCF10F0210EDBCF11F086
:10243000200E105C4E0E115806E2200EDB2A210EF3
:1024400001E3DB2AEFD78092F0D4220EE15C02E2B6
:10245000E16AE552E16EE552E7CFD9FF1200D19073
:10246000F26AF16AF06A9368FD0E8B6ED00E946E7C
:10247000C00EC76E200EC66E0F0EC16E040E896EA2
:10248000F80E926E8B809490F292D08EF19C120096
:10249000417661696C61626C65206E6F6465730D75
:1024A0000A48616E646C65205258204443205032C3
:1024B000502050414E49442041444452204C4F4EFC
:1024C000475F414444520D0A00417661696C616284
:1024D0006C65206E6574776F726B730D0A48616E60
:1024E000646C652050414E4944204144445220438D
:1024F00048414E20525353492050524F5420524588
:10250000562050434F4F5244204153534F430D0ADE
:10251000004A6F696E20746865206E6574776F720B
:102520006B207375636365737366756C6C790D0AE4
:1025300000547279696E6720746F206A6F696E202B
:102540006E6574776F726B3A2000547279696E67AA
:1025500020746F2066696E642061207375697461F0
:10256000626C65206E6574776F726B0D0A004F7038
:10257000656E696E6720436C757374657220536F66
:10258000636B65740D0A0053656E64205265706F4D
:1025900072742062792053686F727420416464728F
:1025A0006573730D0A0053656E64205265706F7217
:1025B00074206279204C6F6E672041646472657389
:1025C000730D0A0053656E64205265706F7274203B
:1025D00062792048616E646C6528536F636B657423
:1025E000290D0A00736F636B6574207265717565E0
:1025F0007374206661696C65640D0A000D0A0046FB
:102600006F756E64206120736F636B65743A200090
:102610005265636569766564205265706F727420D7
:10262000746F20546F67676C65204C696768740D20
:022630000A009E
:0E263200240EAC6E900EAB6E330EAF6E120027
:1026400047D8E652FD0EDBCFF6FFDB2AFE0EDBCFCE
:10265000F7FF01E3DB2A0800F550DF6EDF5005E0ED
:10266000DFCFE6FF04D8E552EDD7E55236D030D8BB
:10267000ACA2FED7FE0EDB50AD6E2FD029D8E652AD
:10268000FE0EDB50DF6EFE0EDB380F0B0F0B29D872
:102690000F0EDF1426D8E55220D01AD811D80750D3
:1026A00004D80ED8035001D818D0F76A8C0FF66EF4
:1026B000280EF7220800F550E66ED9DFE552120029
:1026C0000A0E106E0C6EFE0EDBCF07F038EF14F022
:1026D000D9CFE6FFE1CFD9FF1200E552E7CFD9FF0E
:1026E0001200E76EFE0EE7CFDBFFDB5055EF13F075
:1026F0002A0EF66E000EF76E000EF86E020109004B
:10270000F550F06F0900F550F16F03E1F06701D06B
:102710003DD00900F550EB6F0900F550EC6F090052
:10272000F550ED6F09000900F550E96E0900F5500C
:10273000EA6E090009000900F550EE6F0900F55036
:10274000EF6F09000900F6CFF2F2F7CFF3F2F8CFFE
:10275000F4F2EBC2F6FFECC2F7FFEDC2F8FF0201A4
:10276000EE5302E1EF5307E00900F550EE6EEE077D
:10277000F8E2EF07F9D7F2C2F6FFF3C2F7FFF4C2AF
:0E278000F8FF0201F007000EF15BBFD7120058
:02278E00050E36
:10279000D56EF184F294F28AD58E0201F56BF66B58
:1027A0001200D9CFE6FFE1CFD9FF040EE126F29A5D
:1027B000020EDB6A030EDB6AD650DF6E010ED7CF46
:1027C000DBFFF2A40BD00A0EDF5C08E2020EDB2A6C
:1027D000FF0E0201F55D02E1030EDB2A020EDBCFE4
:1027E000E7FF0201F551E726020EE7CFDBFF030EFC
:1027F000DBCFE7FFF651E726030EE7CFDBFFF28AD8
:10280000DECF04F0DECF05F0DECF06F0DDCF07F03F
:10281000DD52DD52040EE15C02E2E16AE552E16E56
:08282000E552E7CFD9FF1200D9
:08282800D9CFE6FFE1CFD9FF93
:102830009E96C69EFE0EDB50C96EC6BEFAD79EA6F9
:10284000FED7E552E7CFD9FF1200E66AEDDFE55289
:04285000C950120059
:0C2854001DEE00F02DEE00F0F86A0F9C65
:1028600078EC13F05CEC14F0EDEC0EF0FBD71200FA
:10287000036A080EE76ED890073603360C50035CE7
:0C28800002E3036E072AE72EF7D71200D0
:04288C003031323382
:0C28900034353637383941424344454660
:04289C0000EE00F05A
:0A28A0000F0EEE6AEA62FDD7120087
:0628AA00E0436F6D706158
:0728B0006E79204142430054
:0128B7000020
:0228B80012000C
:0128BA00001D
:020000040030CA
:0100010006F8
:010002001FDE
:0100030010EC
:01000500807A
:010006008178
:00000001FF
